:100000000C9459000C9491000C944D040C947600BF
:100010000C9476000C9476000C9476000C94760088
:100020000C9476000C9476000C9476000C94760078
:100030000C9476000C9476000C9476000C94760068
:100040000C9476000C9476000C9476000C94760058
:100050000C9476000902120001010080FA090400E4
:1000600000000000000012011001FF000008C0168F
:10007000DC050001010200012603470065006E0057
:100080006500730069007300200052004F004D00AE
:100090002000440075006D007000650072001003C0
:1000A0006D0065006700610062006F007900040365
:1000B000090411241FBECFE5D8E0DEBFCDBF10E09C
:1000C000A0E6B0E0ECE4FBE002C005900D92A4379E
:1000D000B107D9F723E0A4E7B0E001C01D92AE3824
:1000E000B207E1F70E9422040C94A4050C940000CE
:1000F000A82FB92F80E090E041E050EA609530E011
:1001000009C02D9182279795879510F08427952710
:10011000305EC8F36F5FA8F30895EADF8D939D9377
:100120000895CF93CFB7CF93C395849BE9F7849B72
:1001300009C0849B07C0849B05C0849B03C0849B2B
:1001400001C0A1C0DF93C0917103DD27C858DC4F07
:10015000849B02C0DF91EBCF2F930F931F9300B3CB
:100160002FEF04FB20F94F933F9310B34FEF01277C
:1001700004FB21F93BE031C04E7F012F10B3216019
:1001800028C0102F4D7F2260000000B329C04B7F94
:100190002460012F000010B32BC010B3477F2860EC
:1001A0002AC04F7E00B320612CC04F7D10B3206267
:1001B0002FC04F7B00B3206432C0422700B3499365
:1001C0004FEF0000102714FB20F910B31471C9F190
:1001D000297F91F2012704FB21F900B3237F89F2E3
:1001E000315058F1102714FB22F910B3277E79F211
:1001F000012704FB23F92F7C81F200B3102714FBA5
:1002000024F92F7971F200C010B3012704FB25F9FE
:100210002F7359F200C000B3102714FB26F92230C7
:1002200040F200C010B3012704FB27F9243028F660
:100230004F77206810B30000F9CF10E41ABF0027F1
:1002400017C03B503195C31BD04010E41ABF088142
:10025000033CE9F00B34D9F020916F031981110FA1
:100260001213EDCF093641F10D3211F0013E39F78D
:10027000009376033F914F911F910F912F91DF9142
:10028000CAB7C6FD51CFCF91CFBFCF91189520915E
:100290007603222379F310917403112311F534307E
:1002A00012F13093740320937003109171033BE0BB
:1002B000311B3093710317C00091740301308CF42B
:1002C0000AE53091700034FD10C000937000C4E660
:1002D000D3E00FC02795A8F45150A9F4220F0000D5
:1002E000F9CF4AE503C042ED01C0432FC4E1D0E09D
:1002F00032E011B31461949A11BB02B320E414E10B
:100300005F93012756E002BB279520F4515021F45A
:10031000220FF9CF012756E000003B5A02BBD0F272
:10032000279528F4515029F4220F0000F9CF012716
:1003300056E0279502BB20F4515021F4220FF9CF4B
:10034000012756E02991332302BB21F60B7E109141
:100350007503110FC651D04002BB11F010936F030B
:1003600010E41ABF006111B31B7E402F4B7E5F91DA
:1003700000C000C002BB11BB42BB7CCFB89AC09A80
:1003800081B3806E81BB8B9882B38F7182BB939A4D
:1003900087B38A6087BB88B38A6088BB1ABA8FEF3D
:1003A0008BBB14BA85BB0895969884E08A95F1F7C3
:1003B000969A0895959884E08A95F1F7959A08950C
:1003C000EF92FF920F931F93CF93DF9300D000D053
:1003D000CDB7DEB7C198660F771F881F991FE12C34
:1003E000F12C8B019C010E2C04C035952795179597
:1003F00007950A94D2F700FF02C0979A01C0979818
:1004000069837A838B839C830E94D4012FEFE21A45
:10041000F20A69817A818B819C8148E1E416F104BA
:1004200001F70E94DA01C39858E25A95F1F723B315
:10043000922F80E029B3C39AFC01E22B9F01C901EE
:100440000F900F900F900F90DF91CF911F910F9110
:10045000FF90EF900895CF92DF92EF92FF920F936B
:100460001F9362ED70E080E090E00E94E0016C017B
:10047000E12CF12C7601DD24CC2463ED70E080E0EA
:1004800090E00E94E0018C0120E030E00C291D2961
:100490002E293F290F5F1F4F2F4F3F4FB801C90132
:1004A0001F910F91FF90EF90DF90CF9008958F9262
:1004B0009F92AF92BF92CF92DF92EF92FF920F93F3
:1004C0001F93CF93DF93680179014A015B01B694D2
:1004D000A79497948794C40ED51EE61EF71EF69433
:1004E000E794D794C794EC0121960EC0C501B401DE
:1004F0000E94E001FE013197908388838FEF881A74
:10050000980AA80AB80A22968C149D04AE04BF0467
:1005100068F3DF91CF911F910F91FF90EF90DF90E3
:10052000CF90BF90AF909F908F9008950F931F939F
:1005300000E110E020E030E040E051E060E070E0F9
:1005400083E491E00E94570200E110E020E030E0F7
:1005500040E151E060E070E082E391E00E945702E8
:1005600000E310E020E030E040E251E060E070E0C5
:1005700081E091E00E94570200E310E020E030E0CB
:1005800040E551E060E070E080ED90E00E945702AD
:1005900002E010E020E030E040E851E060E070E090
:1005A0008DEC90E00E9457020BE010E020E030E07C
:1005B00042E851E060E070E080EC90E00E94570279
:1005C00002E010E020E030E04EE851E060E070E052
:1005D00082E693E00E94570200E110E020E030E064
:1005E00040E951E060E070E08FEA90E00E9457023D
:1005F00004E010E020E030E040EA51E060E070E02C
:100600008BEA90E00E94570204E010E020E030E026
:1006100044EA51E060E070E087EA90E00E9457020F
:1006200004E010E020E030E048EA51E060E070E0F3
:1006300083EA90E00E94570204E010E020E030E0FE
:100640004CEA51E060E070E08FE990E00E945702D0
:1006500009E010E020E030E04CEB51E060E070E0B9
:1006600085E990E00E9457020CE110E020E030E0C4
:1006700048EC51E060E070E088E790E00E945702AB
:1006800003E010E020E030E040EF51E060E070E097
:1006900084E790E00E9457021F910F9108950F93F5
:1006A0001F93FC018181843071F140F4813079F035
:1006B00080F0823091F0833069F418C08630A1F167
:1006C00070F1883009F44BC0893021F453C0C098D0
:1006D00001C0C09A20E030E079C080E690E09093BD
:1006E00073038093720320E130E070C082818093B5
:1006F000670083818093680084818093690085818D
:1007000080936A00E7CF868180935501109256014D
:10071000813108F459C080E18093550155C0109291
:1007200058011092570150C00E942B02609359014A
:1007300070935A0180935B0190935C0190936000E9
:1007400080936100709362006093630080E690E0A4
:10075000909373038093720324E030E037C00E94CB
:10076000960283E491E0909373038093720321E1F6
:1007700030E02CC08481958122813381822B932BA0
:10078000A0E0B0E080935D0190935E01A0935F01D3
:10079000B0936001AC01BD01A9E0440F551F661F75
:1007A000771FAA95D1F700E012E020E030E081E663
:1007B00091E00E94570281E691E090937303809349
:1007C000720320E032E002C02FEF3FEFC9011F911A
:1007D0000F91089520915501A0915601FC0106C08A
:1007E0009191B0E0A05ABF4F9C93A32FA21738F06D
:1007F000A093560181E0A21749F080E008953A2FB6
:100800003F5F9E2F981B961758F3F2CF08952091C3
:1008100057013091580141E651E0FC01DA0104C072
:100820008D9181932F5F3F4F8A2F841B211592E07A
:1008300039070CF002C0861798F3309358012093C3
:10084000570108952EE088E190E00FB6F894A8953E
:1008500081BD0FBE21BD0E94BE0185B7846085BFEA
:100860008BB780688BBF0E949D05839905C081E08E
:10087000809354010E9496028C9A8AEFA895EFE625
:10088000F7E13197F1F700C000008150B9F78C987B
:100890007894A8950E946B04FCCF1F920F920FB61C
:1008A0000F9211248F93839B07C080915401813054
:1008B00019F41092540109C0839907C08091540122
:1008C000811103C081E0809354018F910F900FBE7E
:1008D0000F901F901895CF93DF936091740363502E
:1008E00067FDB4C080917103CCE0D0E0C81BD10992
:1008F000C858DC4F809170038D3209F092C0683087
:1009000009F0A2C083EC809364038AE580937000B1
:10091000109261038881807629F0CE010E944F03F6
:100920009C0167C09A8110926D038981811107C073
:1009300010926E038DE693E022E030E056C08530E1
:1009400019F49093750345C08630D1F58B818130C1
:1009500019F486E690E004C0823049F484E590E022
:10096000909373038093720322E130E025C08330BB
:1009700009F5911109C08EEA90E09093730380937A
:10098000720324E030E018C0913049F48EE990E021
:10099000909373038093720320E130E00DC0923096
:1009A00049F488E790E0909373038093720326E202
:1009B00030E002C020E030E080E48093610319C0A1
:1009C000883061F0893019F49093770302C08A303F
:1009D00041F08DE693E020E030E007C087E793E048
:1009E00002C08DE693E021E030E0909373038093A2
:1009F00072032F3F8FEF380749F4888187FF02C0C9
:100A00002E813F8180E88093610306C08E819F81A3
:100A10008217930708F49C013093720020937100B1
:100A200013C08091610387FF0FC0CE010E94EA03CB
:100A30008F3F21F48EE18093700006C0882321F05F
:100A400010927200109271001092740380917000E5
:100A500084FF66C080917100909172008F3F2FEFEC
:100A6000920709F45DC0BC018930910510F068E07F
:100A700070E0861B970B90937200809371008091B9
:100A8000640398E8892780936403C62F662381F165
:100A90008091610387FF06C085E693E00E9407040A
:100AA000C82F24C0209172033091730386FF0BC0BE
:100AB000F901A5E6B3E0862F8A0F94919D933196B4
:100AC0008A13FBCF09C0D901E5E6F3E0862F8E0F2C
:100AD0009D9191938E13FCCF2F5F3F4F8C2F8150B0
:100AE000280F311D3093730320937203C93078F4BB
:100AF0006C2F85E693E00E948D00CC5FCC3071F0C6
:100B00002FEF3FEF309372002093710007C08FEFFB
:100B10009FEF9093720080937100CEE1C0937000BC
:100B200084E190B3947131F48150D9F71092750338
:100B300010926F03DF91CF91089585B7826085BFD2
:0C0B40008BB780648BBF0895F894FFCF42
:100B4C0048656C6C6F2C205553422100000000004E
:040B5C005AFFFF003D
:00000001FF
